S015000046696E616C2050524F4A4543542E73726563EE
S11300000C942A000C943C000C943C000C943C008E
S11300100C943C000C943C000C943C000C943C006C
S11300200C943C000C943C000C943C000C94E400B4
S11300300C943C000C943C000C943C000C943C004C
S11300400C943C000C943C000C943C000C943C003C
S11300500C943C0011241FBECFE5D8E0DEBFCDBF19
S113006020E0A0E6B0E001C01D92A436B207E1F79B
S11300700E949D000C9417030C94000017B887B9D4
S11300804AB321E030E0B90102C0660F771F8A95B8
S1130090E2F7CB01809584238ABB08958295880F6B
S11300A0880F807C87B9089516B886B908950F9390
S11300B01F93CF93DF938B01EA010E943E00C80196
S11300C00E944E00CE010E94540086B1806886B919
S11300D0DF91CF911F910F91089586B1806486B905
S11300E0349BFECF84B165B170E0762F6627682B10
S11300F0072E000C880B990B0E94C1012AE137E6F8
S11301004CE950E40E9425020E948901CB016AE077
S113011070E00E94BA02CB010895019731F48DB1C9
S113012080618DB987B3806B87BB8DB183648DB9D2
S113013008958FB9779BFECF089587B3806B87BBF3
S113014087B38F7B87BB47E050E061E070E080E0DD
S113015090E00E9457000E94400181E090E00E94DC
S11301608D000E9448010E94850120916200309117
S1130170630041E0883709F040E091E02115310542
S113018009F090E0942349F00E94990081E090E006
S11301909093630080936200E6CF41E0833709F0D7
S11301A040E091E02130310509F090E0942339F0EA
S11301B00E9499001092630010926200D4CF232B06
S11301C091F60E949900CFCF1F920F920FB60F9213
S11301D011242F933F934F935F936F937F938F9348
S11301E09F93AF93BF93CF93DF93EF93FF9380914C
S11301F0600090916100019690936100809360008B
S113020031E04091620050916300452B09F030E0E9
S113021021E08839910509F020E02323B9F00E94F8
S11302206D00EC018E31910524F085E60E94990061
S113023005C04E971CF486E60E949900CE010E94E8
S11302406801109261001092600007C0883991051E
S113025021F41092610010926000FF91EF91DF9100
S1130260CF91BF91AF919F918F917F916F915F914A
S11302704F913F912F910F900FBE0F901F901895A3
S113028083B7856083BF89B7816089BF78940895F7
S11302908AB188618AB987E689B908955D9BFECFE2
S11302A08CB908950F931F93CF93DF938C01C0E013
S11302B0D0E003C00E944E012196F801EC0FFD1F0F
S11302C080818111F7CFDF91CF911F910F91089514
S11302D0CF93DF93CDB7DEB72A970FB6F894DEBF7E
S11302E00FBECDBF4AE0BE016F5F7F4F0E94E202A6
S11302F0CE0101960E9452012A960FB6F894DEBFF1
S11303000FBECDBFDF91CF9108955F9BFECF8CB11F
S113031008950E9490016894B1110C941F020895ED
S11303200E94040288F09F5798F0B92F9927B7517B
S1130330B0F0E1F0660F771F881F991F1AF0BA9585
S1130340C9F714C0B13091F00E941E02B1E00895C3
S11303500C941E02672F782F8827B85F39F0B93FB5
S1130360CCF3869577956795B395D9F73EF4909538
S11303708095709561957F4F8F4F9F4F0895E894B6
S113038009C097FB3EF490958095709561957F4FD9
S11303908F4F9F4F9923A9F0F92F96E9BB27939587
S11303A0F695879577956795B795F111F8CFFAF497
S11303B0BB0F11F460FF1BC06F5F7F4F8F4F9F4FC8
S11303C016C0882311F096E911C0772321F09EE826
S11303D0872F762F05C0662371F096E8862F70E08C
S11303E060E02AF09A95660F771F881FDAF7880F66
S11303F09695879597F9089557FD9058440F551F82
S113040059F05F3F71F04795880F97FB991F61F092
S11304109F3F79F087950895121613061406551F09
S1130420F2CF4695F1DF08C0161617061806991F75
S1130430F1CF86957105610508940895E894BB276A
S113044066277727CB0197F908950E9438020C9408
S1130450A9020E949B0238F00E94A20220F0952378
S113046011F00C9492020C94980211240C941F0223
S11304700E94FC0170F3959FC1F3950F50E0551F46
S1130480629FF001729FBB27F00DB11D639FAA27E5
S1130490F00DB11DAA1F649F6627B00DA11D661F34
S11304A0829F2227B00DA11D621F739FB00DA11D55
S11304B0621F839FA00D611D221F749F3327A00D0F
S11304C0611D231F849F600D211D822F762F6A2FAB
S11304D011249F5750409AF0F1F088234AF0EE0F10
S11304E0FF1FBB1F661F771F881F91505040A9F73D
S11304F09E3F510580F00C9492020C941F025F3FC2
S1130500E4F3983ED4F3869577956795B795F79578
S1130510E7959F5FC1F7FE2B880F911D96958795F0
S113052097F9089597F99F6780E870E060E008956F
S11305309FEF80EC089500240A94161617061806F7
S11305400906089500240A941216130614060506D3
S11305500895092E0394000C11F4882352F0BB0F64
S113056040F4BF2B11F460FF04C06F5F7F4F8F4FC7
S11305709F4F089597FB072E16F4009407D077FD3C
S113058009D00E94CE0207FC05D03EF490958195D7
S11305909F4F0895709561957F4F0895AA1BBB1BCB
S11305A051E107C0AA1FBB1FA617B70710F0A61B6F
S11305B0B70B881F991F5A95A9F780959095BC0190
S11305C0CD010895BB274A3031F4992322F4BDE2CA
S11305D0909581959F4F0C94EE02BB27FB01552704
S11305E0AA27880F991FAA1FA41710F0A41B83958C
S11305F05051B9F7A05DAA3308F0A95DA193009703
S113060079F7B111B1931192CB010C940703DC017A
S1130610FC01672F71917723E1F7329704C07C9135
S11306206D9370836291AE17BF07C8F30895F89471
S1050630FFCFF6
S9030000FC
