S00D0000534C4156452E737265639C
S11300000C9442000C944C000C944C000C944C0046
S11300100C944C000C944C000C944C000C944C002C
S11300200C944C000C944C000C944C000C944C001C
S11300300C944C000C944C000C944C000C944C000C
S11300400C944C000C944C000C944C000C944C00FC
S11300500C944C006D007100750079007D008100E6
S1130060600060006000600060006000600060008C
S1130070600060006000600060006000600060007C
S11300806000850011241FBECFE5D8E0DEBFCDBFE0
S11300900E944E000C949D000C94000080E090E0BF
S11300A00E94870087B3806487BB87B38F7E87BB3A
S11300B087B38F7D87BB87B38F7787BB8FEF81BB78
S11300C00E94930090E0FC01E156F109E831F1054A
S11300D0B8F7E65DFF4F0C94970082B3816082BB52
S11300E0EFCF82B3826082BBEBCF82B38E7F82BBC1
S11300F0E7CF82B38D7F82BBE3CF82B3846082BBC0
S1130100DFCF82B38B7F82BBDBCF12BAD9CF01970B
S113011031F48DB180618DB987B3806B87BB8DB1AC
S113012083648DB90895779BFECF8FB10895EE0F48
S1110130FF1F0590F491E02D0994F894FFCF81
S9030000FC
